:020000040800F2
:1000000098080020AD010008773600087D2F000811
:1000100075360008CF130008793D00080000000085
:100020000000000000000000000000000F38000881
:10003000D916000800000000E93700081138000850
:10004000C7010008C7010008C7010008C701000870
:10005000C7010008C7010008C7010008C701000860
:10006000DD160008C7010008C7010008C701000825
:10007000C7010008C7010008C7010008C701000840
:10008000C7010008C7010008C7010008C701000830
:10009000C7010008C7010008C7010008C701000820
:1000A000C701000875380008C7010008C70100082B
:1000B000C7010008C7010008C7010008C701000800
:1000C000C7010008C7010008C7010008C7010008F0
:1000D000C7010008C7010008C7010008F53C000877
:1000E000C7010008C7010008C701000800F002F8B6
:1000F00000F04DF80AA090E8000C82448344AAF175
:100100000107DA4501D100F042F8AFF2090EBAE872
:100110000F0013F0010F18BFFB1A43F0010318473B
:10012000E451000004520000103A24BF78C878C19E
:10013000FAD8520724BF30C830C144BF04680C60ED
:10014000704700000023002400250026103A28BF35
:1001500078C1FBD8520728BF30C148BF0B60704739
:10016000662904F0FD82642900F05480782900F0AB
:100170008D80002070471FB500F0ECFB04000020CC
:10018000002103F0E1FEE0601FBD10B510BD00F0DE
:10019000E1FC1146FFF7EFFF03F042FE00F0FFFC29
:1001A00003B4FFF7F2FF03BC00F042FD09488047AB
:1001B00009480047FEE7FEE7FEE7FEE7FEE7FEE749
:1001C000FEE7FEE7FEE7FEE704480549054A064B61
:1001D0007047000073380008ED0000089802002006
:1001E0009808002098040020980400200FB41CB543
:1001F000074B06AA7B4469460090059800F091FBE6
:100200000020694600F0A0FB1CBC5DF814FB000058
:10021000510700002DE9F0410646002410687529B9
:10022000314616A510D0AFF30080002802DA404214
:1002300013A507E031688A0701D512A502E0490736
:1002400004D511A5012401E0AFF3008000210A22AA
:1002500006F1240709E0B0FBF2FCB0FBF2F302FB6D
:100260001C00303078541846491C0028F3D123462E
:100270002A463046BDE8F04100F0E5B80000000035
:100280002D0000002B0000002000000070B5044687
:100290000D4621461068AFF300802188090502D57C
:1002A0000F4A7A4402E00E4A7A440E32002104F1E9
:1002B000240305E000F00F060009965D5E54491C1A
:1002C0000028F7D120780023000704D5702D02D034
:1002D00009B1022311322046BDE8704000F0B3B8E6
:1002E000A04F00002DE9F0474FF0000A8946044670
:1002F000C0F820A02046E1688847002876D025284D
:1003000006D0D4E901219047206A401C2062F1E721
:10031000E168204600258847C4F81CA0064600274F
:10032000C4F818A02A2E09D0304603F065FD38B372
:1003300004EB8708303EC8F8186019E059F8041B30
:10034000204604EB87029161E1688847012F064649
:1003500018D1E069002820DA25F020051DE0D8F842
:10036000180000EB800006EB40003038C8F8180099
:100370002046E1688847064603F03EFD0028EED19E
:10038000012F0AD02E2E08D12046E16888477F1C15
:100390000646022F45F02005C4DBA069002803DAD9
:1003A000404245F00105A061E80701D025F01005A5
:1003B000B6B1A6F14100192802D8203645F40065EF
:1003C0004A463146204625604D46FFF7C9FE58B1E2
:1003D000012806D0ED1D25F0070000F1080989E786
:1003E00004E005F1040985E730468AE7206ABDE8A4
:1003F000F0874FF0000200B5134694469646203928
:1004000022BFA0E80C50A0E80C50B1F12001BFF4CD
:10041000F7AF090728BFA0E80C5048BF0CC05DF833
:1004200004EB890028BF40F8042B08BF704748BF81
:1004300020F8022B11F0804F18BF00F8012B7047F5
:100440007047704770472DE9F0470D469946924630
:10045000044600F124080168880604D5E06921F00B
:100460001001216000E00120A84201DD471B00E0EF
:100470000027A1697A1902EB0900081AA061207807
:10048000C00602D42046AFF30080002608E0D4E97D
:1004900001211AF806009047206A401C761C206251
:1004A0004E45F4DB2078C0060AD52046AFF3008025
:1004B00006E0D4E9012130209047206A401C2062E8
:1004C000381EA7F10107F4DC07E0D4E9012118F890
:1004D00005009047206A401C2062281EA5F10105F6
:1004E000F3DC2046AFF300802078000602D502201E
:1004F000BDE8F0870120FBE770472DE9FF4F0C4670
:100500001E464FF0FF378BB0D2E90001DDF8608066
:100510000A908A46C1F30A5505B93D4600210846AE
:100520004FF00000BAF1000F00F4400005DA00EBD4
:1005300080004FF4400101EA50004FEA9059B9F1B0
:10054000010F00DDB9460A9850EA4A000ED044F681
:100550001050A5F2FF3545432F14B8F1000F1ED0FF
:100560007542291E1EDDC9F100021CE0B8F1010F21
:100570004FF0000001D0302103E0F24305E02154A8
:10058000401CB042FBDB30460022002121540B9975
:10059000C1F80880C1E900200FB0BDE8F08FBD1B95
:1005A0006D1CDEE74A4600DA694206A800F05CFAF4
:1005B00006AB93E8070003AB83E8070050460A99AF
:1005C00000F03DFB8DE80700A0F500501F380090BB
:1005D0000398002D0ADD42F21F014A460844002319
:1005E00003A90390684600F0A6FD09E0A0F50050BD
:1005F0004A461F38002303A90390684600F0B0FD67
:100600008DE807000004000C03D04FF0FF304108D4
:1006100000E01046B8F1000F03D00022009215460A
:100620001EE0751E05D400F099F9303262556D1E3A
:10063000F9D5B3460122084302D000227F1C04E012
:100640002078302801D100227F1E002A099784D00B
:100650001DE0112D07DA00F081F9303262556D1C72
:1006600050EA0102F5D1084302D00098C8B10EE06B
:100670000021681E05E0235C625C63542254401E26
:10068000491C8142F7DBAB46A81B401E09900020A5
:1006900004F80B000B98099AC0F80880C0E9002BF9
:1006A0007AE711264FF0000857E72DE9F04F88460A
:1006B0000446D21D22F0070191B0D1E90001CDE935
:1006C0000A0103F075FB02460B98C00F01D02D20E4
:1006D00007E02068810701D52B2002E0202101EAF4
:1006E000C000032A099001D0072A05DB03464146D2
:1006F000204600F079F90BE12078800601D5E06909
:1007000000E00620B8F1650F814606D0B8F1660F0B
:1007100018D0B8F1670F70D131E00020B9F1110F96
:10072000009001DB112301E009F101030AAA01A9EC
:100730000CA8FFF7E2FEDDE90C70002609F10105C7
:10074000834647E001204B4600904FF000470AAA3D
:1007500001A90CA8FFF7D1FEDDE90DB00C995D46AB
:10076000002610B909F101000D18B9EB050003D4FA
:10077000C0F1FF3609F10105A5EB09002BE0B9F145
:10078000010F01DA4FF001090020B9F1110F0090BB
:10079000484601DD112300E003460AAA01A90CA87E
:1007A000FFF7ABFEDDE90C704D460026834620784E
:1007B00000070AD4AB4500DA5D4601A8012D04DD2F
:1007C000411911F8011C302907D04F4502DA17F101
:1007D000040F04DA012082460FE06D1EEEE7002FC1
:1007E00002DCED1B3E4403E0781CA84200DD7D1CCA
:1007F000B81B00F1010A4FF000472078000703D42E
:10080000AA4501DB4FF0FF3A0021B7F1004F0DF18F
:1008100043088DF8431024D002202B23002F01DA47
:100820007F422D230A21021EA0F1010000DC5FB1EE
:1008300097FBF1FC97FBF1F201FB1C7C17460CF1D6
:10084000300C08F801CDEEE7A8F101000370218813
:10085000090501D5452100E06521A0F1010800F856
:10086000011C09980FA9A1EB0807FF1D00B1012089
:10087000411901EBEA70A1693844081A401EA061D1
:100880002078C00602D42046AFF30080099828B132
:10089000D4E901219047206A401C20622078C006DC
:1008A00022D52046AFF300801EE0002E04DBB345C6
:1008B00002DD01A8805D00E03020D4E901219047ED
:1008C000206A401C2062761CAAF101005FEA000A3F
:1008D0000AD100F03FF8C0680168405CD4E901210A
:1008E0009047206A401C2062281EA5F10105DCDC2F
:1008F00007E0D4E9012118F8010B9047206A401C59
:100900002062381EA7F10107F3DC2046AFF3008018
:10091000032011B041E6000001694A1C0261087819
:10092000704700B58FB0CDE901310021059105492F
:100930007944CDE9031011466846FFF7D3FC0FB0A8
:1009400000BD0000E5FFFFFF0A6802F8010B0A6026
:1009500070470000004870475402002030B5B0F1E5
:100960000A024FEA900E71F100034EEA817EB0EB6D
:100970000E0061EB91014FEA101E4EEA017E10EB72
:100980000E0041EB11114FEA102E4EEA016E10EBF2
:100990000E0041EB11214FEA104E4EEA014E10EBD2
:1009A0000E0041EB1141401841F100014FEAD00027
:1009B00040EA41704FEAD10110EB80054FEA810413
:1009C00044EA907444EB01046D1944EB0404521B97
:1009D000A3414FF0000348BF0A3200D530BD401C90
:1009E00041F1000130BD00002DE9F0411F460446F1
:1009F00003260168072A01F4006004DB08B116A58C
:100A000005E016A503E008B115A500E015A521F045
:100A100010002060A069C01EA0610FB1401EA0613F
:100A20002046AFF300804FB1D4E90121384690470A
:100A3000206A401C2062C01C206206E0206AFAE79F
:100A4000D4E9012115F8010B9047761EF8D2204613
:100A5000AFF30080BDE8F0814E414E006E616E0044
:100A6000494E4600696E66002DE9F04781461646FC
:100A70008AB0354878440DC88DE80D003248784476
:100A8000801C03AC0DC884E80D0041F69B3008447F
:100A9000372190FBF1F290FBF1F5A5F1800501FB08
:100AA00012041B3C02D56442012000E00020DFF864
:100AB00098A080460027FA44AAF1BE0A0EE0E0079B
:100AC0000AD03246684607EB470101230AEB810151
:100AD00000F046FB8DE8070064107F1C002CEED16F
:100AE000194F7F44AE3F19E0E80715D007EB04101B
:100AF0000DF1180A90E80E008AE80E00C068F04276
:100B000001D1981908903246012306A903A800F0E4
:100B100027FB03AB83E807006D10641C002DE3D1B5
:100B20004FF0010332466946B8F1000F03A802D026
:100B300000F001FB01E000F013FBC9E90001C9F876
:100B400008200AB0BDE8F0877448000000487047EC
:100B5000340200207546FFF7F9FFAE4605006946EE
:100B6000534620F00700854618B020B5FFF72CFB50
:100B7000BDE820404FF000064FF000074FF000089E
:100B80004FF0000B21F00701AC46ACE8C009ACE81F
:100B9000C009ACE8C009ACE8C0098D46704710B583
:100BA0000446AFF300802046BDE81040FFF7F8BAD6
:100BB0004FF0013C50F8042B51F8043B9A4221D1EC
:100BC000A2EB0C03934313EACC1317D150F8042B78
:100BD00051F8043B9A4215D1A2EB0C03934313EA5C
:100BE000CC130BD150F8042B51F8043B9A4209D195
:100BF000A2EB0C03934313EACC13DBD04FF00000BD
:100C0000704700BFD01A01BAB1FA81F101F01801A2
:100C100022FA01F0CB40C1F12001DBB2C0B2C01A10
:100C20002CFA01F3D11A914311EAC311E6D17047AE
:100C300001491820ABBEFEE72600020070475FEABC
:100C4000400C08BF91F0000F4FEA8C234FEAC122FD
:100C500043EA51514FEA1C5018BF00F5F0404FEAEB
:100C6000300018BF41F000415FEA6C5C00F0298061
:100C7000BCF1FF3F08BF40F080407047130C06BF37
:100C800012044FF0100C4FF0000C130E04BF1202B0
:100C90000CF1080C130F04BF12010CF1040C930F9C
:100CA00004BF92000CF1020CD30F04BF52000CF1F0
:100CB000010C11464FF00002A0F11F00A0EB0C0048
:100CC000704711F0004F08BF704731F000413FF40A
:100CD000D5AF0B0C06BF09044FF0100C4FF0000C01
:100CE0000B0E04BF09020CF1080C0B0F04BF090125
:100CF0000CF1040C8B0F04BF89000CF1020CCB0F1C
:100D000004BF49000CF1010CCCF12003A0EB0C0056
:100D100022FA03F302FA0CF241EA030100F10100A6
:100D2000704720F07F4C80EA030023F07F47ACEB54
:100D3000070303F57C5300F0004003F1FF032DE9A6
:100D400080494FEA154B09B44FEA144325EA0B4E8C
:100D500024EA03480FF2042606EB132749083E78DD
:100D60005FEA320203FB0667C7F5000707FB06F6DA
:100D70004FEA54374FEAD64606F1020607FB066CE7
:100D8000CCF1005C4FEA1C472CEA074C07FB06F449
:100D90000CFB06F504EB15464FEA961634BF00200F
:100DA0004FF000404FEAD13706FB07FC4FEA1C4CDE
:100DB0000CFB0BF7D21B03FB0CF761EB07010CFBE1
:100DC0000EF7B0EB074072EB17420CFB08F734BF8D
:100DD000A2EB0742B2EB074261EB17414FEA0C442A
:100DE0004FEA910706FB07FC4FEA1C4C0CFB0BF784
:100DF000B0EBC74072EB573203FB0CF734BFA2EBEA
:100E0000C742B2EBC74261EB57310CFB0EF7B0EBB8
:100E1000C70072EB57720CFB08F734BFA2EBC70296
:100E2000B2EBC70261EB5771039F4FEA816141EA60
:100E3000921104EBCC044FEAD1374FEA826206FBF1
:100E400007FC42EA90124FEA80604FEA1C4C0CFB10
:100E50000BF7D21B03FB0CF761EB07010CFB0EF742
:100E6000B0EB074072EB17420CFB08F734BFA2EB64
:100E70000742B2EB074261EB17414FEA8C554FEA4C
:100E8000910704EB9C2406FB07FC4FEA1C4C0CFB6F
:100E90000BF7B0EBC74072EB573203FB0CF734BFD4
:100EA000A2EBC742B2EBC74261EB57310CFB0EF726
:100EB000B0EBC70072EB57720CFB08F734BFA2EB24
:100EC000C702B2EBC70261EB577115EB4C254FEA35
:100ED000816141EA92114FEA82624FEAD13742EAD8
:100EE000901206FB07FC44F100044FEA80604FEAD1
:100EF0001C4C0CFB0BF7D21B03FB0CF761EB07013F
:100F00000CFB0EF7B0EB074072EB17420CFB08F737
:100F100034BFA2EB0742B2EB074261EB174115EB7E
:100F20001C154FEA813141EA92414FEA823242EA8E
:100F300090424FEA80304FEA0C7644F1000448EAD0
:100F400003434EEA0B484FF0000EB2EB080C71EB76
:100F5000030724BF624639464EEB0E0E4FF0000BDE
:100F60000018524149414BEB0B0BB2EB080C71EBF3
:100F700003077BF1000B24BF624639464EEB0E0E91
:100F80004FF0000B0018524149414BEB0B0BB2EBF9
:100F9000080C71EB03077BF1000B24BF6246394656
:100FA0004EEB0E0E51EA020718BF46F0010616EB93
:100FB0000E7655F1000254F1000103D5BDE8890118
:100FC000BDE80088BDE88901BDE80048B619524176
:100FD00041EB0101A3F10103704780807F7E7D7C9E
:100FE0007B7A7978777676757473727171706F6EBB
:100FF0006E6D6C6C6B6A6A69686867666665646466
:10100000636362616160605F5F5E5E5D5D5C5C5BEF
:101010005B5A5A595958585757565655555554545E
:10102000535352525251515050504F4F4F4E4E4DBC
:101030004D4D4C4C4C4B4B4B4A4A4A494949484808
:101040004847474747464646454545444444444348
:1010500043434342424242414141002B9C4630D4EB
:1010600077002BD01CB54FEA370703B44FF01000C0
:101070004FF01001BAF1000F06D0BCF1000FDCBF39
:1010800040F0080040F008014FF000000FBCBDE840
:1010900010400BF1010BBBF1010F08BF5FEA17070E
:1010A00022BF12F1010211F101014FF0004143F1A1
:1010B000000300F0004043EA00007047F9D35708EE
:1010C000D0E746EA064613F1400F4FEA16461FDD09
:1010D00013F1200FDFBF16430A46002120335B4285
:1010E000BED0C3F1200746EA064602FA07F74FEAE8
:1010F000164646EA0706C3F1200722FA03F201FA70
:1011000007F721FA03F14FF0000342EA0702A7E7CD
:1011100046EA020646EA06464FEA164646EA01064F
:10112000BCBF46EA0646360C4FF000034FF0000203
:101130004FF0000194E72DE9804C9A46934670B435
:1011400091E8380007C831EA400C48BF34EA430C44
:1011500003D5FFF7E6FDFFF780FFF0BCBDE8008C8C
:101160002DE9804C9A46934670B491E8380007C840
:1011700010F0804F08BF13F0804F03D100F005F846
:10118000FFF76BFFF0BCBDE8008C20F07F4780EAE2
:10119000030023F07F4C07EB0C03A3F57C5300F016
:1011A0000040A3F1FE0392F0000F00F0B38095F031
:1011B000000F00F077802DE901494FEA11404FEA16
:1011C000144621EA004800FB06FC24EA064708FB17
:1011D00006F607FB08F800FB07F718EB06484CEB90
:1011E000164C4FEA124B18EB07484FEA15464CEBEA
:1011F000174022EA0B4E0BFB06FC25EA06470EFBC6
:1012000006F607FB0EFE0BFB07F71EEB064E4CEB3C
:10121000164C4FF000061EEB074E4CEB174B18EB2D
:101220000B0840F1000018EB0E0B58EB000840F1E2
:1012300000008F1A4FF000013CBFC943661B14BF6A
:10124000B5EB040C00213CBFC943F61B4FEA174421
:101250004EEA8E0E27EA04454FEA1C4704FB07625C
:101260002CEA074C05FB07F70CFB05F604FB0CFC0E
:1012700016EB074642EB174216EB0C4642EB1C42BC
:101280001BEB060658EB0202414146EA9E0601D5D9
:10129000BDE80189B619524141EB0101A3F10103F7
:1012A000BDE801894FEA14454FEA114724EA054693
:1012B00021EA074C05FB07F406FB07F70CFB06F1D8
:1012C00005FB0CFC11EB074144EB17444FEA1247B6
:1012D00011EB0C4144EB1C4422EA074C05FB07F2DE
:1012E00006FB07F70CFB06F605FB0CFC16EB0746A6
:1012F00042EB174216EB0C4642EB1C456A1854F1C0
:10130000000148BF7047B619524141EB0101A3F1FA
:101310000103704795F0000F37D04FEA11424FEAB2
:10132000144721EA024624EA074C02FB07F106FBB8
:1013300007F70CFB06F402FB0CFC14EB074441EB33
:1013400017414FEA154714EB0C4441EB1C4125EAC9
:10135000074C02FB07F506FB07F70CFB06F602FB42
:101360000CFC16EB074645EB174516EB0C4645EB18
:101370001C42121951F1000148BF7047B619524181
:1013800041EB0101A3F1010370474FEA14454FEA15
:10139000114724EA054621EA074C05FB07F106FB45
:1013A00007F70CFB06F24FF0000605FB0CFC12EBF6
:1013B000074241EB174112EB0C4251EB1C4148BF75
:1013C0007047921841EB0101A3F101037047FEE75A
:1013D0002DE9F05F00F0AEF9AA4802F012FAAA492E
:1013E0000860AA4802F00DFA4142A94801604FF492
:1013F0000041A84800F032FBA74F012100B9397025
:10140000A648A74AA74B0068DFF89CA2A74E002574
:10141000A74C90420DDA3970307860B1A548206051
:1014200060603D709AF8001071B135708AF8005014
:101430000AE0387840B1012211469846184600F07B
:1014400012FB0022022107E00122022198461846E1
:1014500000F009FB00220121404600F004FB964801
:10146000DFF858E2974903789548002B964ADFF851
:101470005C82DFF85C923B787DD0D4F800C09B465C
:1014800043EA0C03D4F804C053EA0C030AD10378EE
:101490001BB14FF47A7323606360337813B1854BCB
:1014A000236063605FEA0B036FD103785BB123684D
:1014B000643323606368643363609EF8007017B11F
:1014C00005708EF80050307858B12068643820607C
:1014D0006068643860609AF8003013B135708AF83B
:1014E00000502068002805DD6368002B75DD0A3890
:1014F0000A3B05E071DA6368002B6EDA0A300A33C2
:10150000C4E9000369E000BF98F8000060B1A0687A
:10151000401EA060E068401CE06099F8001019B11E
:1015200088F8005089F80050A0686A4F4FF03336B1
:10153000002861DDE168002938DA401E491CC4E951
:101540000201206802F0F5FD8846054632463B461A
:1015500002F006FE0B4602462846414602F00AFF0C
:1015600002F0B8FD2061606802F0E3FD88460546A0
:1015700032463B4601E007E007E002F0F1FD2A4673
:10158000434602F0F7FC5CE08BB1E560A560656066
:10159000256088F800500D703570057089F800508E
:1015A00015708AF800508EF800503D704CE00378BA
:1015B00043B1236803F57A732360636803F57A7394
:1015C00063600570307840B12068A0F57A702060C3
:1015D0006068A0F57A70606035700878002893D054
:1015E000A068401CA060E068401EE0601078002801
:1015F0008AD00D70157087E726DAE168002923DDAF
:10160000401C491EC4E90201206802F092FD884690
:10161000054632463B4602F0A3FD2A46434602F009
:10162000A9FC02F057FD2061606802F082FD884647
:10163000054632463B4602F093FD2A46434602F0F9
:101640008DFE02F047FD10E0A560E560104D0E4EE6
:101650002968306802F0D7FB2168084420612968B6
:10166000306802F0D0FB6168081A114960611431DA
:10167000081F01F0ECFDD4E90401BDE8F05F01F0C2
:10168000FBBD00001401002000000020A401002088
:1016900004000020000801400D0000201C00002074
:1016A00000002041000C0140100000200A00002032
:1016B0004C00002018FCFFFF0E0000200F0000204F
:1016C000090000200B000020110000200C00002069
:1016D000120000203333D33F7047000010B50420C0
:1016E00000F0C0F804210E4800F0B8F90D4C0128B4
:1016F0000ED0204600F064FF2068406A0A4C80B299
:10170000E08102F04DFF094902F05EFF606110BD0B
:10171000216800204862BDE81040024800F0FCBE8D
:10172000000801405C0100200800002096438B3C2B
:1017300072B6FEE710B5084C01220821204600F0E1
:1017400092F90C2002F051F820460022BDE810402A
:10175000082100F088B900000008014010B590F899
:1017600021100022022905D00421816380F8202065
:10177000012010BD01680B6823F00E030B600168A7
:101780000B6823F001030B6090F84030C46B01211B
:1017900001FA03F3636080F8211080F820201046DE
:1017A00010BD000010B590F821100024022903D0CC
:1017B0000421816301243DE001680A6822F00E02E1
:1017C0000A6001680A6822F001020A601A4A016888
:1017D000914201D1012121E0174A1432914201D1F5
:1017E00010211BE0144A2832914201D1891515E0DD
:1017F000114A3C32914201D189140FE00E4A503215
:10180000914202D14FF4803108E00B4A6432914298
:1018100002D14FF4801101E04FF08071064A083A7E
:101820005160012180F82110002180F82010416BC7
:1018300001B18847204610BD0800024070B504463B
:1018400000F016F90546601C02D0044800780444F4
:1018500000F00EF9401BA042FAD370BD200000201A
:1018600070470000044910B50A68024202D00860BF
:10187000FFF7F6FF10BD0000140401402DE9F84FFA
:10188000DFF8B8910024A9F1040B23460F2709F1D2
:10189000040AABF1040EC9E00125A5402A40AA4282
:1018A0007DD1674ED1F804C0ACEB0608B44532D008
:1018B00014DCBCF1030F3AD009DCBCF1000F2AD0D4
:1018C000BCF1010F1CD0BCF1020F31D11DE0BCF105
:1018D000110F17D0BCF1120F2AD119E0B8F5881FEB
:1018E00019D006DCB8F5803F15D0B8F5801F1FD1A0
:1018F00011E0B8F5001F0ED0B8F5041F18D10AE0AA
:10190000CB6815E0CB681B1D12E0CB6808330FE0F5
:10191000CB680C330CE08B682BB1012B4FF0080324
:1019200003D0456104E0042302E0056100E00023E8
:10193000FF2A01D8064601E000F104064FEA8405BB
:1019400001D9A5F12005D6F8008007FA05FC28EAA0
:101950000C0803FA05F548EA0508C6F800804D684A
:10196000ED0062D5374DAE6946F00106AE61AD6956
:1019700024F0030605F001050095334D06EB050C38
:10198000DCF80850A607360F07FA06F825EA08051E
:10199000DFF8B880404503D14FF0000817E044E07D
:1019A000DFF8AC80404502D14FF001080FE0DFF8CE
:1019B000A480404502D14FF0020808E0DFF898808B
:1019C000404502D14FF0030801E04FF0040808FA47
:1019D00006F848EA0508CCF808804D68D9F8006098
:1019E000ED024D4601D5164300E096432E604D684A
:1019F000DAF80060AD02554601D5164300E0964383
:101A00002E604D68DBF80060AD035D4601D51643DE
:101A100000E096432E604D68DEF80060ED037546E9
:101A200001D5164300E096432E60641C0D682A46DB
:101A3000E5407FF431AFBDE8F88F000008040140B5
:101A40000000111000100240000001400008014099
:101A5000000C014000100140001401408068084063
:101A600000D0012070470AB1016170470904FBE70B
:101A700001488068704700002000002070B5040015
:101A800025D094F83D00002520B984F83C5020462C
:101A900000F050F9242084F83D002068016821F00E
:101AA000010101602068016841F400410160206883
:101AB000016821F40041016000F0A2FA4D4A61681A
:101AC000914201D84C4900E04C49884201D20120A2
:101AD00070BD4B492368B0FBF1F15E6826F03F060C
:101AE0000E435E606368934206D94FF49673594380
:101AF0004FF47A73B1FBF3F12368491C1E6A26F098
:101B00003F06314319626168914210D84900401E76
:101B1000B0FBF1F2521CC2F30B02042A01D20420E2
:101B200022E0B0FBF1F0401CC0F30B001CE0A26807
:101B3000F2B301EBC10303EB0116431EB3FBF6F353
:101B40005B1C43F480431B0549D092B301EBC102F7
:101B500002EB0111401EB0FBF1F0401CC0F30B0082
:101B600040F4804040F400402168CA694CF6FF739D
:101B70009A431043C861D4E9071001432068026802
:101B800022F0C00211430160D4E90301014320683F
:101B9000826848F2FF339A4311438160D4E905011A
:101BA00008432168CA6822F0FF021043C86001E0C0
:101BB0000EE016E02068016841F001010160256433
:101BC000202084F83D00256384F83E50002070BD3D
:101BD00001EB4106431EB3FBF6F35B1CB3E70120A8
:101BE000C2E701EB4101401EB0FBF1F0401CC0F325
:101BF0000B00B7E7A086010080841E0000093D00AD
:101C000040420F002DE9FF4F83B09A46DDE911975E
:101C100093460446DDF84080FFF72AFF054694F816
:101C20003D0020287FD119230122404920460095FC
:101C300001F03CFA002876D194F83C00012872D0DB
:101C4000012084F83C0020680168C90703D10168BD
:101C500041F0010101602068016821F40061016028
:101C6000212084F83D00402084F83E0000262664B0
:101C7000C4F82480A4F82A90608D20852C48E06266
:101C8000CDE9007553465A462046049901F08EF975
:101C900070B930E02A463946204601F0ADFA58B115
:101CA000206C042804D12068016841F400710160AF
:101CB000012007B0BDE8F08F606A216800780861F4
:101CC000606A401C6062218D491E89B22185628D47
:101CD000521E628522685369DB435B070BD469B1EE
:101CE00000781061606A401C6062208D401E208573
:101CF000608D401E6085208D0028CBD12A46394654
:101D0000204601F0A7F90028CAD154F83D0B01681C
:101D100041F400710160202004F81E09E67766771F
:101D20000020C6E7FFE70220C3E700000200100022
:101D30000000FFFF10B586B00021009101910291D3
:101D4000039100681349884222D1134CA06940F0E6
:101D50000800A061A069694600F0080004904FF4F3
:101D60004070009012200190032003900B48FFF771
:101D700085FD0B48416841F0E06141F0020141609E
:101D8000E06940F40010E061E06900F400100490A4
:101D900006B010BD0054004000100240000C01408D
:101DA0000000014002488168027811448160704758
:101DB00020000020074810B5016841F010010160C3
:101DC000032000F075F80F2000F006F800F024F86A
:101DD000002010BD0020024070B50D4D04464FF4A8
:101DE0007A712878B1FBF0F00A490968B1FBF0F08C
:101DF00000F0DCFA48B9102C07D200222146501E10
:101E000000F036F800206C6070BD012070BD00004D
:101E1000200000202C0000200C4808B5816941F00A
:101E200001018161816901F001010091C16941F005
:101E30008051C161C06900F0805000900448416841
:101E400021F0E06141F00071416008BD00100240E6
:101E500000000140002809DB00F01F020121914031
:101E60004009800000F1E020C0F800117047000038
:101E7000F0B40E4B1B680C46C3F30223C3F10705F5
:101E8000042D00D90425191D072901D2002300E0E3
:101E9000DB1E012606FA05F1491E214099409E40AD
:101EA000761E16403143F0BC01F096BF0CED00E009
:101EB000064900F0070208684FF6FF03184040EAA1
:101EC0000220034A10430860704700000CED00E058
:101ED0000000FA052DE9F0470F46050061D0434E9A
:101EE000306800F00700B84209D2306820F00700DF
:101EF00038433060306800F00700B84251D128689C
:101F00003B4C810712D5400703D5606840F4E06080
:101F100060602878000703D5606840F46050606016
:101F20006068A96820F0F000084360602878C00766
:101F300028D06868012810D02168022810D08907AD
:101F400000292EDA616821F0030101436160FFF787
:101F50008FFD804641F288390DE021688903EFE763
:101F60008901EDE7FFF784FDA0EB0801494502D99F
:101F70000320BDE8F0876068696800F00C00B0EBF2
:101F8000810FEFD1306800F00700B8420BD93068FC
:101F900020F0070038433060306800F00700B84296
:101FA00001D00120E5E72878400705D56068E96899
:101FB00020F4E060084360602878000706D5606878
:101FC000296920F4605040EAC100606000F038F8F0
:101FD0006168084AC1F30311515CC84006490860B2
:101FE00006480068FFF7F8FE0020C2E70020024024
:101FF00000100240664800082C0000202400002049
:102000000448054900684968044AC1F30221515C4B
:10201000C84070472C00002000100240764800089D
:102020000448054900684968044AC1F3C221515C6B
:10203000C84070472C00002000100240764800087D
:102040000E4A51680E4801F00C03042B11D0082BE6
:102050000FD10C48C1F38343C903C05C0AD5516852
:10206000084AC1F34041921E515C054A5043B0FBFF
:10207000F1F07047044948437047000000100240E7
:1020800000127A005648000800093D002DE9F84F7B
:10209000040070D02078C04DC00749D06868C0F3F4
:1020A0008100012807D06868C0F38100022809D1A7
:1020B0006868C00306D52868800339D560680028A1
:1020C000E7D035E06068B0F5803F0BD010B1B0F5D7
:1020D000A02F11D0286820F480302860286820F4D0
:1020E000802002E0286840F480302860606890B169
:1020F000FFF7BEFC06460AE0286840F4802028600E
:10210000F0E700BFFFF7B4FC801B642873D8286891
:102110008003F7D50CE0FFF7ABFC064605E000BFF7
:10212000FFF7A6FC801B6428F0D828688003F7D44A
:1021300020789A4E80074FF001094FF0000839D5FA
:10214000686810F00C0F07D06868C0F3810002289F
:1021500009D16868C00306D42868800714D52069AF
:10216000012808D110E02069B0B1C6F80090FFF74F
:102170007FFC074605E00AE1FFF77AFCC01B022856
:10218000C4D828688007F7D52868616920F0F8006E
:1021900040EAC10028600DE0C6F80080FFF768FC47
:1021A000074604E0FFF764FCC01B022823D8286818
:1021B0008007F7D4207800072CD57948A169D9B1D8
:1021C000C0F80090FFF754FC074604E0FFF750FC0E
:1021D000C01B02280FD8686A8007F7D571484FF4F2
:1021E000FA510068B0FBF1F0009000BF0098411E6A
:1021F0000091FAD20EE080E0C0F80080FFF738FCD2
:10220000074604E0FFF734FCC01B022875D8686A53
:102210008007F7D42078400760D5E8690027C00020
:1022200008D4E86940F08050E861E869012700F0CF
:10223000805000905C480168C90513D4016883464A
:1022400041F480710160FFF713FC824606E000BF95
:10225000FFF70EFCA0EB0A0064284ED8DBF8000064
:10226000C005F5D5E06801280AD008B1052813D0CB
:10227000286A20F001002862286A20F0040002E0A9
:10228000286A40F001002862E06841F2883B98B17A
:10229000FFF7EEFB82460BE0286A40F0040028625C
:1022A000EEE700BFFFF7E4FBA0EB0A0159455AD85F
:1022B000286A8007F6D50CE0FFF7DAFB824605E0D6
:1022C000FFF7D6FBA0EB0A0159454CD8286A8007D6
:1022D000F6D41FB1E86920F08050E861E06988B366
:1022E0006968C1F38101022944D00228C6F86080E0
:1022F00004D0FFF7BDFB044638E034E0FFF7B8FB3D
:10230000074604E0FFF7B4FBC01B02282BD828685F
:102310008001F7D4206AB0F5803F05D16868A168D4
:1023200020F4003008436860D4E908010843696874
:1023300021F4741108436860C6F86090FFF798FBB9
:10234000044606E025E000BFFFF792FB001B0228D1
:1023500009D828688001F7D51BE000BFFFF788FB8C
:10236000001B022802D90320BDE8F88F28688001ED
:10237000F4D40EE00128F7D06868226A00F48031B6
:10238000914204D1616A00F47010884201D00120AA
:10239000EAE70020E8E700000010024000004242A7
:1023A000800442422C0000200070004010B5401E06
:1023B000B0F1807F01D3012010BD4FF0E0246061B7
:1023C0000F21601701F008FD0020A06107202061A7
:1023D000002010BD7047704710B590F83C20012ACE
:1023E00022D0012280F83C20CA688C6822F4407216
:1023F00022434C6822F4806222430C6822F400627B
:1024000022430C6922F4805222434C6922F4005288
:102410002243C969002322F480420A4301684A64C6
:1024200080F83C30002010BD022010BD70B590F83F
:102430003C20012A26D0012480F83C40022280F86A
:102440003D2003685A689D6822F070060A6832438E
:102450005A600D4B02689A4208D0B2F1804F05D005
:102460000A4B9A4202D00A4B9A4204D1496825F09D
:1024700080031943916080F83D40002180F83C10B2
:10248000084670BD022070BD002C014000040040D1
:102490000008004010B5040003D094F83D0010B1CE
:1024A00007E0012010BD002084F83C00204600F029
:1024B0001FF8022084F83D00211D206801F0F0F98A
:1024C000012084F8460084F83E0084F83F0084F838
:1024D000400084F8410084F8420084F8430084F806
:1024E000440084F8450084F83D00002010BD000041
:1024F00008B500680649884208D10648C16941F01C
:102500000201C161C06900F00200009008BD000036
:10251000000400400010024090F83D10012901D055
:1025200001207047022180F83D1000680B49884265
:1025300008D0B0F1804F05D00949884202D009493E
:10254000884204D1816801F00701062903D001689F
:1025500041F001010160002070470000002C0140A3
:10256000000400400008004090F83D10012901D00F
:1025700001207047022180F83D100168CA6842F0CE
:102580000102CA6000680B49884208D0B0F1804F50
:1025900005D00949884202D00849884204D181689F
:1025A00001F00701062903D0016841F00101016033
:1025B00000207047002C014000040040000800404B
:1025C00001680A6A41F211131A4207D10A6A9B1084
:1025D0001A4203D10A6822F001020A60012180F840
:1025E0003D100020704770B5044690F83C0000256F
:1025F000012817D0012684F83C60022084F83D00B1
:102600002068826822F0770222F47F4282600868A4
:10261000502838D00DDC20284FD005DC90B310288E
:1026200011D14AE0022070BD302846D040280AD19E
:102630003BE060282FD070280DD0B0F5805F03D02C
:10264000B0F5005F12D0012584F83D60002084F8C9
:102650003C00284670BDCB68D1E90121206801F01B
:1026600068F92068816841F0770109E0CB68D1E919
:102670000121206801F05DF92068816841F4804102
:102680008160E1E719E0CA684968206801F006FA4C
:102690005021206806E0CA684968206801F00FFAF6
:1026A0006021206801F04FF9CEE7CA6849682068C8
:1026B00001F0F4F940212068F4E722680146104651
:1026C000F0E72DE9F0410D46040003D094F83D00F9
:1026D00018B108E00120BDE8F081002084F83C003A
:1026E000204600F041F8022084F83D00206881680F
:1026F00044F2070291438160211D206801F0D0F867
:10270000226890689169166A2B68AF69034340F2AA
:102710000330814341EA0721A868EF6908434FF677
:10272000FC418843E96840EA0720014328692F6A91
:10273000000140EA0730084369686D6926F0220607
:1027400046EA0515294393602268906154F8460BC8
:102750000162012004F81F09E0752076E0762077F9
:10276000A0750020B7E7000000B585B000210091FA
:1027700001910291039101681A48B1F1804F1BD079
:10278000194A914216D1C16941F00401C161C16980
:1027900001F004010491816941F0080181618069BF
:1027A000694600F008000490C02000900F4800BF68
:1027B000FFF764F805B000BDC16941F00101C161D6
:1027C000C16901F001010491816941F00401816155
:1027D0008069694600F004000490032000900448DA
:1027E000E6E700000010024000080040000C014035
:1027F0000008014070B590F83E60044690F83F50E4
:1028000090F8423090F84320022021B104290ED0E4
:10281000012E1BD114E0012E18D1012B16D184F802
:102820003E0084F8420001220021206820E0012DB2
:102830000CD1012A0AD184F83F0084F8430014E047
:10284000012D03D1012B01D1012A01D0012070BD3E
:1028500084F83E0084F83F0084F8420084F8430086
:1028600001220021206801F057F80122042120688C
:1028700001F052F82068016841F001010160002078
:1028800070BD70472DE9F04104460068C6680569CF
:102890004FF00007A90713D5B10711D5F91E016143
:1028A00001202077206880698007204602D0FFF74A
:1028B000E8FF04E000F0A4F8204600F053F9277781
:1028C000680716D5700714D521686FF004000861F9
:1028D000022020772068806910F4407F204602D0D3
:1028E000FFF7CFFF04E000F08BF8204600F03AF944
:1028F0002777280715D5300713D521686FF0080012
:102900000861042020772068C0698007204602D033
:10291000FFF7B7FF04E000F073F8204600F022F95B
:102920002777E80616D5F00614D521686FF0100059
:102930000861082020772068C06910F4407F204695
:1029400002D0FFF79EFF04E000F05AF8204600F0A6
:1029500009F92777E80708D0F00706D021686FF05B
:1029600001000861204600F04DF9280608D5300620
:1029700006D521686FF0800008612046FFF72AFD28
:10298000680608D5700606D521686FF0400008611A
:10299000204600F038F9A8060AD5B00608D5216807
:1029A0006FF0200008612046BDE8F041FFF713BD3D
:1029B000BDE8F08100B585B0002100910191029140
:1029C000039100680B49884212D10B48816941F09C
:1029D000040181618069694600F0040004904FF4AD
:1029E000106000900220019003900448FEF746FF1B
:1029F00005B000BD002C014000100240000801405D
:102A0000704770B5044690F83C0000260D4601283A
:102A10000FD0012084F83C006AB1042A1DD0082A96
:102A20002FD00C2A3FD00126002084F83C003046ED
:102A300070BD022070BD206800F08EFF20688169A3
:102A400041F0080181612068816921F00401816100
:102A5000206881692A69114311E0206800F0A4FF11
:102A60002068816941F4006181612068816921F4F5
:102A700080618161206881692A6941EA022181615E
:102A8000D2E7206800F0BCFF2068C16941F008016E
:102A9000C1612068C16921F00401C1612068C16978
:102AA0002A69114311E0206800F0D6FF2068C1694F
:102AB00041F40061C1612068C16921F48061C16194
:102AC0002068C1692A6941EA0221C161ACE710B5F9
:102AD000040003D094F83D0010B107E0012010BDC0
:102AE000002084F83C00204600F01EF8022084F804
:102AF0003D00211D206800F0D3FE012084F846002F
:102B000084F83E0084F83F0084F8400084F84100D7
:102B100084F8420084F8430084F8440084F84500B7
:102B200084F83D00002010BD08B500680B498842BC
:102B300012D10B48816941F40061816180690022F2
:102B400000F40060009011461920FFF791F9BDE8EC
:102B500008401920FFF77EB908BD0000002C014095
:102B6000001002407047000010B50446022249B12F
:102B700004290ED0082913D094F84100012816D05A
:102B8000012010BD94F83E000128F9D184F83E20C0
:102B90000FE094F83F000128F2D184F83F2008E0CC
:102BA00094F840000128EBD184F8402001E084F83B
:102BB00041200122206800F0AFFE0F4920688842C2
:102BC00003D1426C42F4004242642068884208D03B
:102BD000B0F1804F05D00949884202D008498842A7
:102BE00004D1816801F00701062903D0016841F092
:102BF00001010160002010BD002C014000040040D4
:102C0000000800407047704770477047F8B501688A
:102C100004460868CA684B6910F00F0F4FF00005B2
:102C200059D003F0010602F49077374365D0C1070D
:102C300005D0D10503D5616C41F001016164410704
:102C400005D5D90703D0616C41F0020161648107A9
:102C500005D5D90703D0616C41F004016164010717
:102C600007D502F02001314303D0616C41F0080127
:102C70006164616C00293AD0800604D5900602D5C3
:102C8000204600F05DFF20684069616CC0F3801051
:102C9000090700D460B3204600F02BFF206840698C
:102CA000400621D52068143050E8001F21F0400173
:102CB00040E80012002AF5D1E06BA8B16D494163EC
:102CC000E06BFEF76FFD002811D0E06B416B01B0A7
:102CD000BDE8F040084783060FD593060DD5204682
:102CE000BDE8F84000F02CBF2046FFF78EFFF8BD8E
:102CF0002046FFF78AFF6564F8BD266B2023012E6E
:102D00007CD1C6067AD5D60678D508684868009082
:102D100048694FF00206400640D5E16B08684068FC
:102D20000004000CE8D0A28D8242E5D9E0858869D4
:102D300020282DD020680C3050E8001F21F480712D
:102D400040E80012002AF5D12068143050E8001F36
:102D500021F0010140E80012002AF5D1206814306A
:102D600050E8001F21F0400140E80012002AF5D190
:102D700084F84230256320680C3050E8001F21F0B1
:102D8000100140E80012002AF5D1E06BFEF7E6FCE6
:102D90006663A08DE18D401A81B22AE0A08DE18D9D
:102DA000401A81B2E08D0028A6D00029A4D0226864
:102DB0000C3252E8000F20F4907042E80007002F18
:102DC000F5D12068143050E8002F22F0010240E8CD
:102DD0000027002FF5D184F84230256320680C309D
:102DE00050E8002F22F0100240E80023002BF5D11C
:102DF00066632046FFF708FFF8BDFFE705062BD501
:102E0000150629D594F841002128F5D1A068B0F520
:102E1000805F01D12069B0B1206A411C2162216824
:102E200000784860E08C401E0004000CE084E3D190
:102E30002068C16821F08001C1602068C16841F04C
:102E40004001C160D8E7206A0088C0F308004860EC
:102E5000206A801C2062E5E74006CDD55006CBD520
:102E6000CA68204622F04002CA6084F8413000F06F
:102E700084F8C1E7E33A000870B5040004D094F880
:102E80004100002510B106E0012070BD84F84050DB
:102E9000204600F023F8242084F841002068C1680F
:102EA00021F40051C160204600F0ACFE20680169A9
:102EB00021F4904101612068416921F02A014161BA
:102EC0002068C16841F40051C1606564202084F825
:102ED000410084F842006563002070BD30B585B0C4
:102EE00000240094019402940394006818498842D5
:102EF0002CD11848C16941F48021C161C16901F434
:102F000080210491816941F0080181618069124D3D
:102F100000F0080004904FF48060009002200190BF
:102F20000320039069462846FEF7A8FCE814CDE983
:102F30000004694628460294FEF7A0FC00221146D0
:102F40002720FEF795FF2720FEF784FF05B030BD50
:102F50000048004000100240000C014090F8423050
:102F6000202B01D00220704721B11AB10023036346
:102F700000F0A4BE0120704770477047FEE701686B
:102F80004A69D24352050FD46FF480624A6100212E
:102F900040F8301F202242738173026942F004021C
:102FA0000261017301207047002070472DE9F8434A
:102FB000044600680D46DDE9089701689846164604
:102FC00041F4807101604B4600224FF00111204610
:102FD000009700F06BF848B120680068C00502D582
:102FE0004FF4007020640320BDE8F883216805F0E9
:102FF000FE0008613B464A461549204600F09EF80F
:1030000088B920684169806900903A46494620465F
:1030100000F0F2F848B1206C042804D1206801685F
:1030200041F4007101600120DEE7F5B2B8F1010F53
:1030300009D02168300A08613A464946204600F026
:10304000DBF80028E7D1206805610020CCE700000C
:103050000200010070B516460D4604461EE02046EB
:10306000FFF78DFF08B1012070BD681C16D0FEF778
:10307000FFFC801BA84200D885B920684069C04386
:1030800040070BD5002044F8300F20216173A07356
:10309000216941F0200121612073E4E72068406943
:1030A000C0434007DBD4002070BD00002DE9F0478D
:1030B000984617460D460446C1F30746DDF82090B2
:1030C0002AE000BFB8F1FF3F26D0FEF7D1FCA0EB0D
:1030D0000901414502D8B8F1000F1DD12068012E29
:1030E00016D0806925EA00000004000C12D00020F0
:1030F000B84211D1002044F8300F20216173A07331
:10310000216941F02001216120730120BDE8F08791
:103110004069E7E70120EBE72068012E0AD08069CB
:1031200025EA00000004000C06D00020B842C9D0F7
:103130000020EBE74069F3E70120F7E72DE9F047CE
:10314000984616460D4604464FF000094FF0200AF7
:10315000C1F3074723E020684069C043400515D408
:103160002068016841F40071016021686FF480609B
:103170004861C4F8309084F83DA084F83E90216CFA
:1031800041F00401216484F83C9021E0701C06D0D9
:10319000FEF76EFCA0EB0800B04203D816B1012F79
:1031A0001FD021E02068012F15D0806925EA00009A
:1031B0000004000C18D000BF44F8309F84F80DA024
:1031C00084F80E90216941F02001216184F80C906F
:1031D0000120BDE8F087406925EA00000004000CEA
:1031E000EAD12068406901E02068806925EA000092
:1031F0000004000CAFD1ECE770B516460D4604464E
:103200001EE02046FFF7BBFE08B1012070BD681C20
:1032100016D0FEF72DFC801BA84200D885B9206887
:103220004069C04300060BD5002044F8300F202130
:103230006173A073216941F0200121612073E4E7EB
:1032400020684069C0430006DBD4002070BD10B583
:103250004FF4E15304685A429C4201DD036002E0EE
:10326000944200DA02600868984201DD0B6010BDEC
:103270009042FCDA0A6010BD2DE9F0410D461B4E6C
:1032800004004FF480514FF4005705D50122304619
:10329000FEF7E9FB002204E000223046FEF7E3FBE4
:1032A000012239463046FEF7DEFB002C00DA64428C
:1032B0000F4F386844634FF480414C00002D05DA0D
:1032C00001223046FEF7CFFB002204E00022304608
:1032D000FEF7C9FB012221463046FEF7C4FB002D54
:1032E00000DA6D4238680564BDE8F081000C0140E9
:1032F000CC0000202DE9F04786B000243F48009420
:10330000019402940394816941F010018161816903
:1033100001F010010491816941F02001816181690E
:1033200001F020010491816941F00401816181690A
:1033300001F004010491816941F008018161806913
:10334000DFF8BC8000F008004FF400550490002224
:1033500029464046FEF787FBDFF8A8A0002241F28D
:1033600008015046FEF77FFBDFF89C904FF2030701
:10337000002239464846FEF776FB009502260125D5
:103380000396CDE9015469464046FEF777FA0420DA
:1033900000901E48CDE9010469465046FEF76EFADA
:1033A0000820CDE900050320CDE9024069465046DA
:1033B000FEF764FA00970396CDE901546946484642
:1033C000FEF75CFA2803CDE90005CDE9024669461F
:1033D0005046FEF753FAE803CDE90004694650462B
:1033E0000294FEF74BFA002211460820FEF740FD3A
:1033F0000820FEF72FFD06B0BDE8F0870010024060
:103400000010014000080140000C01400000311094
:103410000D4810B50B4901600C49416000214FF483
:1034200080428160C0E9031241618161C161016232
:10343000FEF724FB002803D0BDE81040FEF778B962
:1034400010BD00000054004078000020A08601005C
:1034500010B592B000240F941C2168461094FCF71C
:10346000C8FF202107A8FCF7C4FF24482249C0E96F
:10347000001441F61F41C0E90241046144618461C6
:10348000FFF725FB08B1FEF753F90F940FA91B486E
:103490001094FEF7CBFF08B1FEF74AF96020CDE9A2
:1034A000000402940394049405940022694613488E
:1034B0000694FFF7A6FA08B1FEF73AF90C2269461E
:1034C0000E48FFF79EFA08B1FEF732F90794089408
:1034D00009944FF400500A94CDE90B4007A907481E
:1034E0000E94FEF779FF08B1FEF722F90348FFF7C3
:1034F00061FA12B010BD0000002C0140CC00002089
:1035000010B58CB024216846FCF773FF00241548E1
:1035100009944FF080410A94C0E900144FF6FF71FE
:10352000C0E90241046184610320CDE90004012067
:10353000CDE902040494CDE90540079469460948A1
:103540000894FFF7BEF808B1FEF7F2F8099409A94C
:1035500004480A94FEF76AFF002801D0FEF7E8F855
:103560000CB010BD1401002010B586B0002417481F
:103570000094019402940394049413490594016007
:103580004721C0E901144FF6FF71C0E903148461BB
:10359000FEF780FF08B1FEF7CBF84FF480500090A3
:1035A00069460A48FFF71FF808B1FEF7C1F804940E
:1035B00004A906480594FEF739FF002801D0FEF75C
:1035C000B7F806B010BD0000000400405C01002008
:1035D00010B58CB024216846FCF70BFF0024164878
:1035E000099414490A94C0E900144FF6FF71C0E928
:1035F0000241046184610320CDE900040120CDE98A
:1036000002040494CDE90540079469460A480894E9
:10361000FFF757F808B1FEF78BF8099409A9064897
:103620000A94FEF703FF002801D0FEF781F80CB0E2
:1036300010BD000000080040A40100200C4810B597
:103640000A4901604FF4E1314160002181600C22A0
:10365000C160C0E904128161C161FFF70DFC00285F
:1036600003D0BDE81040FEF763B810BD004800402D
:10367000EC010020FEE7FEE770B5002404F1B00085
:10368000C0B200F08DF8002000F08AF8102000F0A1
:1036900087F80025002000F095F86D1CEDB2802D14
:1036A000F8D3641CE4B2082CE8D370BD10B5C82070
:1036B000FEF7C4F8BDE8104000F060BB10B504464A
:1036C000B031C8B200F06CF8102040EA141000F0DD
:1036D00067F804F00F00BDE8104000F061B800008A
:1036E0002DE9F041203A00240D468046D6B27F28CD
:1036F00003D900208D1C8046EDB2102B29460FD037
:10370000FFF7DCFF164906EB460001EB4005285D9C
:1037100000F058F8641CE4B2062CF8D3BDE8F08140
:10372000FFF7CCFF0F4F00BF04EB0610385C00F032
:1037300049F8641CE4B2082CF6D36D1CE9B240468B
:10374000FFF7BCFF5FF0000404EB06103844007A7A
:1037500000F038F8641CE4B2082CF5D3DEE7000072
:103760007E480008A64A00082DE9F0419846174611
:103770000E46044600250DE0434631462046FFF73D
:10378000AFFF0834E4B2782C02D90024B61CF6B29C
:103790006D1CEDB27A5D002AEED1BDE8F08100002B
:1037A00001B584B001214FF4807204A88DE80700B0
:1037B0000B46002278210248FEF724FA05B000BD2E
:1037C0007800002001B584B001214FF4807204A874
:1037D0008DE807000B46402278210248FEF712FAD6
:1037E00005B000BD78000020704708B500EBC000B0
:1037F00020F06040009000BF0098411E0091FAD276
:1038000008BD0168486A002200B24A6270477047EA
:10381000FEF7C8BA30B58FB028216846FCF7E9FD3D
:1038200014210AA8FCF7E5FD01210804CDE90010E8
:103830000024029402250491CDE907504FF4E010D2
:1038400009906846FEF722FC08B172B6FEE70F2029
:10385000CDE90A054FF48060CDE90C4002210AA8A9
:103860000E94FEF737FB002801D072B6FEE70FB0CA
:1038700030BD704710B50848FFF704F80748018AC3
:10388000491C89B20182642905D300210182BDE867
:103890001040FDF79DBD10BDCC00002008000020A9
:1038A000F0B50268194B1A4C1A4D4FF080479842F8
:1038B00005D0B84203D0A04201D0A84203D122F0E3
:1038C00070064A683243984205D0B84203D0A042FD
:1038D00001D0A84203D122F44074CA6822434C6943
:1038E00022F08002224302608A68C2620A68826211
:1038F000984201D109690163012141610169C90748
:1039000003D0016921F001010161F0BD002C0140EB
:10391000000400400008004010B501F01F03012121
:10392000046A99408C430462016A9A40114301621F
:1039300010BD10B5846842EA032224F47F440A4390
:103940002243826010BD826822F070020A4342F076
:10395000070181607047000030B5036A026A22F0F7
:10396000010202624268846924F073050C682C43EA
:1039700023F002058B682B430A4DA8420BD123F09C
:103980000805CB6822F440722B434D6923F00403F1
:1039900015438A692A43426084614968416303622E
:1039A00030BD0000002C014030B5026A036A23F0EC
:1039B00010030362436884690D6824F4E64444EA12
:1039C00005248D6822F0200242EA05120B4DA84220
:1039D0000ED1CD6822F0800242EA05124D6923F42F
:1039E000406343EA85038D6922F0400243EA850380
:1039F0004360846149688163026230BD002C0140EC
:103A000030B5036A026A22F4807202624268C469B5
:103A100023F4007324F073050C682C438D6843EA8B
:103A200005230C4DA8420ED1CD6823F4006343EA70
:103A300005234D6922F4405242EA05128D6923F4B0
:103A4000806342EA05124260C4614968C16303624F
:103A500030BD0000002C014030B5046A026A22F437
:103A6000805202624268C3690D6823F4E64343EA68
:103A700005238D6824F4005444EA0534064DA84219
:103A800004D14D6922F4804242EA85124260C3614A
:103A900049680164046230BD002C014010B5036A1E
:103AA000046A24F001040462846924F0F00444EA06
:103AB000021423F00A020A438461026210BD10B5A9
:103AC000036A046A24F010040462846923F0A003EA
:103AD00024F4704444EA023243EA01118261016233
:103AE00010BD10B5406A0021C185C184FFF78DF873
:103AF00010BD01680C3151E8002F22F4907241E8AA
:103B00000023002BF5D10168143151E8002F22F079
:103B1000010241E80023002BF5D1016B012909D1F5
:103B200001680C3151E8002F22F0100241E8002317
:103B3000002BF5D1202180F842100021016370474D
:103B400008B590F84210222901D0022008BD8268F1
:103B50004FF480539A4201D1016921B1816A9A429E
:103B60001BD04AB10AE00268816A5268C2F30802B7
:103B70000A80816A891C08E0026972B10268526891
:103B800002F07F020A70816A491C8162C18D491E60
:103B90000904090CC18503D01BE002685268F1E7F3
:103BA0000168CA6822F02002CA600168CA6822F46B
:103BB0008072CA6001684A6922F001024A612021CC
:103BC00080F8421000214163026B012A03D0FFF705
:103BD000D3F9002008BD016301680C3151E8002FC2
:103BE00022F0100241E80023002BF5D101680A6899
:103BF000D20602D50A6849680091818DFFF704F862
:103C0000E7E7000070B5044600680169E26821F446
:103C10004051114301612169A0680843616908436B
:103C20002168CA6841F20C639A430243CA60206863
:103C30004169A26921F44071114341611E49206824
:103C4000884202D1FEF7ECF901E0FEF7D9F900EB6A
:103C5000C00101EB0012606864218000B2FBF0F348
:103C6000B3FBF1F36FF018067343B2FBF0F5B2FB50
:103C7000F0F605EB8305322303EB0515B5FBF1F5F3
:103C8000B6FBF1F605F0F00505EB0615B2FBF0F614
:103C9000B2FBF0F0B0FBF1F06FF01802504306EB0E
:103CA000800003EB0010B0FBF1F0216800F00F0082
:103CB0002844886070BD0000003801408162828520
:103CC000C28500214164222180F84210016921B19E
:103CD0000168CA6842F48072CA6001684A6942F0A9
:103CE00001024A610068C16841F02001C160002002
:103CF0007047000010B51E48FEF788FF1D481D499B
:103D00000B3900780870012290B1012812D00228E6
:103D100012D0032812D0042812D0052812D0062869
:103D200012D0072812D00A2812D00F2812D015E07E
:103D30004A7113E04A7011E0CA710FE08A700DE019
:103D40000A720BE0CA7009E04A7207E00A7105E0E6
:103D50008A7203E0887940B100208871BDE8104084
:103D6000012204490248FFF7F9B80120F5E70000F5
:103D7000EC01002013000020FEE70000FEB5002447
:103D8000094F4FF4807501263819CDE9000601234B
:103D90000022782102950548FDF734FF641CE4B247
:103DA0001B2CF1D3FEBD0000300000207800002065
:103DB000490050EAC12018BF04204A0D18BF40F046
:103DC000010040F2FF72B2EB515F08BF40F0020009
:103DD000012808BF052070470907090E002804DBE9
:103DE00000F1E02080F80014704700F00F0000F1AF
:103DF000E02080F8141D704730380A2801D20120D5
:103E000070470020704710B5401A00F092F94FF04B
:103E1000FF3200F0D9FCBDE8104000F05BB90000B3
:103E2000FDF7C8FFFFF7F6FCFFF764FAFFF7F0FABB
:103E3000FFF70EFBFFF764FBFFF796FBFFF7C8FBEE
:103E4000FFF7FCFBFFF732FCFFF716FC0122110322
:103E50002748FDF708FE00212648FEF785FE0C21C5
:103E60002448FEF781FE2348FEF77EFB3C212248D2
:103E7000FEF7C0FC3C212148FEF7BCFC0122204992
:103E80002048FFF76BF81E4C1F4D204E204F2A781C
:103E900020A12348FCF7AAF900211023204A084654
:103EA000FFF762FC1FA11E483268FCF79FF9102340
:103EB0001B4A02210020FFF757FC386800F044FB42
:103EC00002460B461AA11648FCF790F91023144A33
:103ED00004210020FFF748FC227818A11048FCF7C5
:103EE00085F910230E4A06210020FFF73DFCCEE79E
:103EF00000080140CC00002014010020A401002093
:103F000013000020EC0100200E000020040000201F
:103F10001C0000204D6F64653A25642020200000BD
:103F200064000020456E635F523A25642020200023
:103F30006469733A252E3266202000007561727420
:103F40003A2578202000000010B500290AD0087812
:103F5000002807D005487844FCF72AFE002801D045
:103F6000002010BD0248784410BD0000CE130000B0
:103F7000C613000010B591EA030F48BF83F0004359
:103F800000F10082841A71EB030C05D2121943EB85
:103F90000C03001B61EB0C01DFF824E14FEA115424
:103FA000A4EB135C1EEA430F18BF9EEA445F73D074
:103FB00023EA0E03DCF1200E21EA045143F48013BE
:103FC00032D322FA0CFE10EB0E0023FA0CFE41EB6A
:103FD0000E01CCF1200E03FA0EFE10EB0E0051F193
:103FE0000001B1F5801FCCF1200E32D201EB04515B
:103FF00012FA0EF2BDE8104058BF7047401C38BF9F
:104000005FEA420218BF7047002814BF20F0010089
:1040100041F100014FEA410313F5001F38BF70471B
:10402000A1F1C04100F094B9012A43EB0302ACF1C5
:10403000200CDCF11F0E32BF4FF0000E23FA0CF300
:1040400010EB030041EB0451B4EB115FD0D0A1EBB6
:10405000045101F5801149085FEA300001EB045179
:104060000ED350F1000038BF12FA0EFE08D1BDE8A1
:104070001040C9E7401C38BF5FEA4202CAD1C3E71B
:10408000BDE810404FEA410313F5001F38BF7047E9
:10409000A1F1C04100F05CB99EEA445F08D011EA8A
:1040A0005E0FBDE8104004BF01F0004100207047E2
:1040B000BDE8104070B500F0FDF800BF64FBBE3EE7
:1040C0000000E0FF02494FF0000000F04BBB00BFD2
:1040D0000000F87F4FEA41034FEA5353A3F5806392
:1040E000D3F11E03C8BFD3F1210C0CDD4FF0004209
:1040F00042EAC12242EA505232FA03FC8CEAE17CE5
:10410000ACEBE1707047102BC4BF0020704703F583
:10411000787CBCF1FF3F04D06FF0004282EA2100BE
:10412000704770B500F0C6F84992248000207047AF
:10413000F2E710F0004248BF4042B0FA80F310FAB4
:1041400003F10AD0C3F11D0303F580634FEA415028
:1041500002EB035202EBD12170474FF00000704791
:10416000DFF848C170B51CEA111E1EBF1CEA13150A
:104170009EEA0C0F95EA0C0F00F06F8081EA0304B1
:1041800023EA4C134EEAD47E21EA4C1141F480110B
:1041900043F48013AE44A1FB024CA0FB0365AEF1D7
:1041A0007F7E361955EB0C05A1FB034C4CF1000347
:1041B000A0FB021C16EB0C06654153F100030942FB
:1041C00018BF46F0010613F4007F0BD14FEA03310C
:1041D0004FEA0530340341EA155140EA16506FF0BA
:1041E00003020AE04FEAC3214FEAC520F40241EA84
:1041F000555140EA56506FF0020202EB2E4201EB9D
:10420000025585EACE710AD05FEA440C18BF24F04B
:10421000004450F1000041F1000120EAD47040F266
:10422000FE7C624500D270BDA84214BF4FF08044AE
:104230004FF04044002E08BF0024BEF1806FA8BF9D
:10424000A1F1C041BDE8704080F282804FF00000D3
:1042500001F1C04101F0004170479EEA0C0F0CEAE9
:10426000131518BF95EA0C0F06D04FF0000081EA35
:10427000030E0EF0004170BD00F01CF88900013EF5
:1042800000F007B800F009B84FEA430C5FEA5C5C45
:1042900008D081EA030100F05BB84FEA410C5FEA05
:1042A0005C5CF6D14FF00000014970470000FF0749
:1042B0000000F87F0EF1020E2EF0030E5EF8046B84
:1042C000364205D4012A43EB030515F5001F12D829
:1042D000012841EB010C1CF5001F0CD80ED14FEA50
:1042E000D17C15F5001F0CEB4C0C0CF1020C08BF37
:1042F0004CEBD37C04E04FF0080C01E04FEAD37C98
:104300000CEB4C0526FA05F606F00706B6F1040C90
:1043100006D20EEB860CBDE870404CF0010C6047F5
:10432000DFE80CF0090B02024FF000414FF00000F3
:10433000A1F5002170BD19461046012851EB01047A
:1043400018BFD4F5001484BF002001F0004170BDF7
:104350000808A0F500114FEA3101704791EA030FF8
:1043600010B581F000413FF50DAE83F0004300F041
:1043700009B8000010B591EA030F48BF83F000436D
:104380003FF500AE841A71EB030C07D212198CF0C2
:10439000004C43EB0C03001B61EB0C01DFF8A4E1C4
:1043A0004FEA1154A4EB135C1EEA430F18BF9EEAB8
:1043B000445F00F0B08023EA6E03524221EA0451C8
:1043C000C3EB6E0338BF5B1EDCF1200E25D322FA4F
:1043D0000CFE10EB0E0043FA0CFE41EB0E01CCF18B
:1043E000200E03FA0EFE10EB0E0051F10001CCF18D
:1043F000200E29D412FA0EF201EB0451BDE8104050
:1044000058BF7047401C1CBFB2F1004F70470028D6
:104410000CBF491C20F00100704712EB020E43EB69
:10442000030218BF4FF0010E4EEA4202ACF1200C1D
:10443000DCF11E0E54D943FA0CFE10EB0E0051F1C4
:10444000FF31CCF11E0ED5D50EF1010E12FA0EFE83
:10445000404141EB010101EB445C5FEA5C5C10D937
:1044600010EBDE7001EB045138BFBEF1004FBDE828
:10447000104018BF704700280CBF491C20F00100F5
:10448000704730D24FEAD42C11F5001124F40064A7
:104490001BD0B1FA81F20B3AA41AA41ED2F1200368
:1044A000914030FA03F31943904001EBCC71002C9A
:1044B00001EB0451BDE81040A8BF704701F1C041B5
:1044C0004FF0000001F000417047B0FA80F310FA9D
:1044D00003F100D110BDE41A173C4805C90AE4E70E
:1044E00001EB045110BD491001EB0451BDE810402F
:1044F0004FEA300002E04FF0000170474A0008BF69
:104500000042F8D0B2F5001F28BF704701F000410B
:104510004FF0000070479EEA445F07D011EA5E0F3B
:10452000BDE8104004BF002100207047BDE81040E6
:1045300070B5FFF7BFFE00BF40DFF63E83F00041DD
:10454000104670470000E0FF43004FEAD30C4FEAEB
:104550003C0C43401FBF40070CF1605113F0FE4F6D
:1045600070471CF0006F03D100200CF00041704731
:104570000CF0004343EA507010B540EACC0000F064
:10458000A4F800BF000000924FEA0001FFF7E0BE70
:104590004FF000414FF00000A1F5002170470000EE
:1045A000B0FA80F310FA03F2C3F19D030AD0D905E3
:1045B00001EB1220530638BF704700F1010008BF1D
:1045C00020F00100704700004FF47F0C1CEAD0126D
:1045D0001EBF1CEAD11392EA0C0F93EA0C0F00F0F5
:1045E000478090EA010F48BF42F480724FF0004CC0
:1045F0004CEA00204CEA012102EB0302A0FB01136C
:10460000A2F50002002918BF43F001035B0028BF98
:104610004FEA330342EB22425FEA132C4CEBC250C9
:104620002EBFBCEB436FB2F57C0F70474FEA036CB3
:10463000BCF1004F08BF20F00100B2F57C0F38BF7D
:1046400070470BD582F0FF0212F5803FC8BF70475C
:1046500000F1C040D8BF00F00040704700F5000CEA
:104660005FEA4C0C48BF7047B0F1C04000F073B82F
:1046700090EA010F0CEAD11348BF42F48072624500
:1046800038BF634504D280EA010000F00040704763
:1046900010B500F01AF800BF8900013E00F007B81D
:1046A00000F009B85FEA410C5FEA1C6C08D080EAB0
:1046B000010000F050B85FEA400C5FEA1C6CF6D1D4
:1046C0004FF00040A0F5800070470EF1020E2EF072
:1046D000030E5EF8044B244204D44FEA4102B2F1C7
:1046E0007F4F11D84FEA4003B3F17F4F0CD80ED162
:1046F0004FEAD07CB2F17F4F0CEB4C0C0CF1020C6A
:1047000008BF4CEBD17C04E04FF0080C01E04FEA0D
:10471000D17C0CEB4C0324FA03F404F00704B4F14D
:10472000040C06D20EEB840CBDE810404CF0010CDA
:104730006047DFE80CF0070802024FF00040A0F5E8
:10474000800010BD0846420018BFD2F1807288BFB9
:1047500000F0004010BDFF2141EAD050C005704775
:10476000FBF7A3BF0CF00F03092B08BF082000F0D4
:1047700059800A2B0BD0082B18BF704708BF1CF0BC
:10478000400F0AD04FF000004FF0000170471CF0BE
:10479000400F18BF4FF0004070471CF0100F08D0BA
:1047A00020F0704300F07F4242EAD3014FEA4370A9
:1047B000704700F0604021F07F4242EA000201F0C1
:1047C0007F4040EA727070474FF0FF0C4CF4E06C91
:1047D0001CEA11531CBF9CEA030C9445C2BFDA4289
:1047E00001EB02517047002B0DD0BCF1000F0FD030
:1047F000002A01F00041A4BF41F0E04141F07F6197
:104800004FF00000704701F000414FF0000070478A
:1048100050EA01334FF09B0C18BF4CF0806C7FF4D2
:1048200051AC70471CF4801F11D01CF4E02F03D052
:104830006FEACC31490070474FF04050EFF30082EF
:1048400022F0704242EA000282F3008870474FF083
:1048500000007047010202030405060708090A0B5D
:104860000C0D0E0F101000000000000000000102EF
:104870000304060708090000000001020304000009
:10488000000000000000002F0000000007000700EB
:1048900000147F147F1400242A7F2A120062640807
:1048A0001323003649552250000005030000000084
:1048B0001C224100000041221C000014083E081484
:1048C0000008083E0808000000A060000008080872
:1048D0000808000060600000002010080402003E8C
:1048E0005149453E0000427F400000426151494627
:1048F000002141454B31001814127F100027454517
:104900004539003C4A494930000171090503003628
:104910004949493600064949291E0000363600003B
:104920000000563600000008142241000014141440
:10493000141400004122140800020151090600323B
:104940004959513E007C1211127C007F4949493679
:10495000003E41414122007F4141221C007F4949E4
:104960004941007F09090901003E4149497A007F18
:104970000808087F0000417F4100002040413F01BE
:10498000007F08142241007F40404040007F020C1D
:10499000027F007F0408107F003E4141413E007FBE
:1049A00009090906003E4151215E007F0919294687
:1049B0000046494949310001017F0101003F404063
:1049C000403F001F2040201F003F4038403F006311
:1049D0001408146300070870080700615149454333
:1049E00000007F41410000552A552A5500004141F1
:1049F0007F000004020102040040404040400000EB
:104A000001020400002054545478007F4844443884
:104A100000384444442000384444487F003854540B
:104A2000541800087E0901020018A4A4A47C007F89
:104A3000080404780000447D4000004080847D002C
:104A4000007F102844000000417F4000007C0418D3
:104A50000478007C0804047800384444443800FC9E
:104A6000242424180018242418FC007C08040408BA
:104A700000485454542000043F444020003C40402F
:104A8000207C001C2040201C003C4030403C004466
:104A900028102844001CA0A0A07C004464544C446E
:104AA000141414141414000000000000000000008E
:104AB000000000000000000000F8000000000000FE
:104AC00000333000000000100C06100C060000003F
:104AD00000000000000040C07840C0784000043F63
:104AE00004043F040400007088FC08300000001833
:104AF00020FF211E0000F008F000E0180000002157
:104B00001C031E211E0000F00888700000001E21FA
:104B100023241927211010160E00000000000000A9
:104B2000000000000000000000E018040200000087
:104B300000071820400000020418E00000000040B8
:104B4000201807000000404080F080404000020232
:104B5000010F01020200000000F00000000001014E
:104B6000011F01010100000000000000000080B0F2
:104B700070000000000000000000000000000001C4
:104B800001010101010100000000000000000030EF
:104B90003000000000000000000080601804006089
:104BA00018060100000000E010080810E000000FE7
:104BB000102020100F00001010F80000000000204E
:104BC000203F202000000070080808887000003096
:104BD000282422213000003008888848300000183E
:104BE000202020110E000000C02010F80000000757
:104BF0000424243F240000F80888880808000019CD
:104C0000212020110E0000E0108888180000000FFD
:104C1000112020110E0000380808C83808000000D4
:104C2000003F000000000070880808887000001C29
:104C3000222121221C0000E010080810E0000000E2
:104C4000312222110F00000000C0C000000000004F
:104C50000030300000000000008000000000000074
:104C6000806000000000000080402010080000016B
:104C7000020408102000404040404040400004042E
:104C800004040404040000081020408000000020F8
:104C9000100804020100007048080808F000000035
:104CA000003036010000C030C828E810E0000718C6
:104CB000272423140B000000C038E0000000203C33
:104CC00023020227382008F8888888700000203FD7
:104CD000202020110E00C0300808080838000718EE
:104CE00020202010080008F808080810E000203FE5
:104CF000202020100F0008F88888E8081000203FC6
:104D000020202320180008F88888E8081000203F99
:104D1000200003000000C030080808380000071811
:104D20002020221E020008F808000008F808203F92
:104D3000210101213F20000808F808080000002098
:104D4000203F2020000000000808F8080800C0806C
:104D500080807F00000008F888C028180800203FE5
:104D600020012638200008F8080000000000203F3D
:104D700020202020300008F8F800F8F80800203F34
:104D8000003F003F200008F830C00008F808203F2E
:104D9000200007183F00E01008080810E0000F107E
:104DA000202020100F0008F808080808F000203F15
:104DB000210101010000E01008080810E0000F18B0
:104DC000242438504F0008F8888888887000203FD5
:104DD0002000030C302000708808080838000038D4
:104DE000202121221C00180808F8080818000000DB
:104DF000203F2000000008F808000008F808001F05
:104E0000202020201F000878880000C838080000F3
:104E100007380E010000F80800F80008F800033C0D
:104E20000700073C030008186880806818082030D5
:104E30002C03032C30200838C800C83808000000B4
:104E4000203F2000000010080808C838080020385B
:104E5000262120201800000000FE020202000000AF
:104E6000007F40404000000C30C000000000000007
:104E700000010638C00000020202FE0000000040EF
:104E800040407F0000000000040202020400000015
:104E90000000000000000000000000000000808012
:104EA00080808080808000020204000000000000FA
:104EB00000000000000000008080808000000019D9
:104EC000242222223F2008F8008080000000003FBA
:104ED000112020110E000000008080800000000ED4
:104EE000112020201100000000808088F800000EB2
:104EF000112020103F200000808080800000001FD3
:104F0000222222221300008080F088888818002046
:104F1000203F202000000000808080808000006B07
:104F200094949493600008F8008080800000203FF3
:104F3000210000203F200080989800000000002001
:104F4000203F20200000000000809898000000C052
:104F50008080807F000008F8000080808000203F73
:104F600024022D302000000808F800000000002076
:104F7000203F202000008080808080808000203FB3
:104F800020003F20003F8080008080800000203F84
:104F9000210000203F200000808080800000001F52
:104FA000202020201F00808000808000000080FFE3
:104FB000A12020110E000000008080808000000EE3
:104FC000112020A0FF808080800080808000202031
:104FD0003F2120000100000080808080800000339D
:104FE000242424241900008080E080800000000038
:104FF000001F202000008080000000808000001F33
:10500000202020103F2080808000008080800001D0
:105010000E300806010080800080008080800F3004
:105020000C030C300F000080800080808000002086
:10503000312E0E31200080808000008080808081B1
:105040008E70180601000080808080808000002122
:10505000302C2221300000000000807C0202000081
:105060000000003F40400002027C80000000004041
:10507000403F0000000000000000FF0000000000B2
:105080000000FF0000002010E824272424E424343A
:105090002C20E000000000000000000000000000E4
:1050A00000000000000080601F090909097F09094C
:1050B00049897F000000000000000000000000009F
:1050C0000000000000000000FC242424FC2526240D
:1050D000FC24242404000000000000000000000064
:1050E00000000000000040308F80844C55252525AD
:1050F000554C80808000000000000000000000008F
:10510000000000000000008060F80704E4A4A4BFD1
:10511000A4A4E4040000000000000000000000005F
:10512000000000000000010000FF40407F4A4A4AA2
:105130004A4A7F40400000000000000000000000DC
:105140000000000000000000F888888888FF888838
:105150008888F80000000000000000000000000047
:1051600000000000000000001F080808087F888871
:1051700088889F80F0000000000000000000000010
:105180000000000000000000FE0282828282FA829B
:105190008282828202000000000000000000000005
:1051A00000000000000080601F40404040407F4001
:1051B0004044584040000000000000000000000093
:1051C000000000000000008060F80704E4A4A4BF11
:1051D000A4A4E4040000000000000000000000009F
:1051E000000000000000010000FF40407F4A4A4AE2
:1051F0004A4A7F404000000000000000000000001C
:10520000000000000000000000000000000000009E
:10521000000000000000000000000000000000008E
:105220000000000000000000363600000000000012
:10523000000000000000000000000000000000006E
:105240000000000000003031323334353637383951
:1052500041424344454640305800303132333435C2
:105260003637383961626364656640307800000023
:1052700002400000000000A0000000000540000007
:10528000000000C8000000000C4000000000409C2E
:1052900000000000194000000020BCBE000000001B
:1052A00034400000BFC91B8E00000004B540000060
:1052B000504BCFD06607E2CF010000006C410000E8
:1052C0003E8251AADFEEA73401000000D94200005F
:1052D000DCB5A0E23A301F97FFFFFFFFB4450000A6
:1052E000FD25A0C8E9A3C14FFFFFFFFFFF3F00005E
:1052F0000000008000000000FF3F00000000008070
:10530000000000004053000800000020640000007E
:1053100028010008A453000864000020340800009D
:10532000440100081C00000043000000F8FFFFFFDC
:105330000C0000000E0000000F0000002E00000016
:10534000000000000000000000000000000000005D
:10535000000000000000000000000000000000004D
:1053600001000000100000000000000000127A00A0
:10537000AE001040B081FFA1A6A83FC8D300D580E1
:10538000D805D9F1DA12D8308D14AF000000000032
:10539000000000000000000000000000000000000D
:0453A0000000000009
:04000005080000ED02
:00000001FF
